:020000040800F2
:10000000B049002041020008B33B0008E535000874
:10001000B13B0008FF150008CD4A000800000000B1
:10002000000000000000000000000000A90100081E
:100030003D18000800000000ED0100081946000806
:100040005B0200085B0200085B0200085B0200081C
:100050005B0200085B0200085B0200085B0200080C
:100060005B0200085B0200085B0200085B020008FC
:100070005B0200085B0200085B0200085B020008EC
:100080005B0200085B0200085B0200085B020008DC
:100090005B0200085B0200085B0200085B020008CC
:1000A0005B020008A94600085B0200085B0200082A
:1000B0005B0200085B020008B54600085B0200080E
:1000C0005B0200085B0200085B0200085B0200089C
:1000D0005B0200085B0200085B0200085B0200088C
:1000E0005B0200085B0200085B02000800F002F8F7
:1000F00000F04AF80AA090E8000C82448344AAF178
:100100000107DA4501D100F03FF8AFF2090EBAE875
:100110000F0013F0010F18BFFB1A43F0010318473B
:10012000C88E0000E88E0000103A24BF78C878C15D
:10013000FAD8520724BF30C830C144BF04680C60ED
:10014000704700000023002400250026103A28BF35
:1001500078C1FBD8520728BF30C148BF0B60704739
:10016000662908F00C83642900F0DA8000207047CB
:100170001FB500F007FD04000020002108F05CF925
:10018000E0601FBD10B510BD00F0FCFD1146FFF78B
:10019000EFFF06F0D5F800F01AFE03B4FFF7F2FF08
:1001A00003BC00F05DFE0000224B19680868B0E84F
:1001B000F00F80F30988BFF36F8F4FF0000080F3DA
:1001C00011884EF00D0E70470000000006480068D0
:1001D000006880F3088862B661B6BFF34F8FBFF343
:1001E0006F8F00DF00BF00BF08ED00E0EFF3098074
:1001F000BFF36F8F0F4B1A6820E9F00F106008B53E
:100200004FF0500080F31188BFF34F8FBFF36F8F13
:1002100007F09EFA4FF0000080F31188BDE8084017
:1002200019680868B0E8F00F80F30988BFF36F8F92
:10023000704700BF98000020EFF305807047000072
:100240000948804709480047FEE7FEE7FEE7FEE76A
:10025000FEE7FEE7FEE7FEE7FEE7FEE704480549A6
:10026000054A064B70470000A5460008ED0000084F
:10027000B0430020B0490020B0450020B045002028
:10028000B2F120030AD5C2F1200320FA02F001FAEC
:1002900003F321FA02F140EA0300704721FA03F068
:1002A0004FF00001704700000FB41CB5074B06AAC1
:1002B0007B4469460090059800F04BFC002069469D
:1002C00000F05AFC1CBC5DF814FB0000C5080000DF
:1002D00070B5044685690068C10601D5302600E086
:1002E0002026C00707D070BDD4E9012130469047D1
:1002F000206A401C20626D1EF6D570BD70B50446A4
:1003000085690078C00707D170BDD4E9012120209C
:100310009047206A401C20626D1EF6D570BD00001B
:100320002DE9F0410646002410687529314616A5CE
:1003300010D0AFF30080002802DA404213A507E096
:1003400031688A0701D512A502E0490704D511A535
:10035000012401E0AFF3008000210A2206F1240706
:1003600009E0B0FBF2FCB0FBF2F302FB1C00303002
:1003700078541846491C0028F3D123462A463046B3
:10038000BDE8F04100F078B9000000002D00000049
:100390002B000000200000002DE9F0474FF0000A7C
:1003A00089460446C0F820A02046E1688847002816
:1003B00076D0252806D0D4E901219047206A401C38
:1003C0002062F1E7E168204600268847C4F81CA0B7
:1003D00005460027C4F818A02A2D09D0284604F0A5
:1003E0009AFB38B304EB8708303DC8F8185019E081
:1003F00059F8041B204604EB87029161E1688847A5
:10040000012F054618D1E069002820DA26F02006E1
:100410001DE0D8F8180000EB800005EB40003038F4
:10042000C8F818002046E1688847054604F073FBC9
:100430000028EED1012F0AD02E2D08D12046E168E8
:1004400088477F1C0546022F46F02006C4DBA069C2
:10045000002803DA404246F00106A061F00701D00F
:1004600026F010066C2D0AD0682D08D04C2D39D0FE
:100470006A2D35D0742D35D07A2D33D016E0E16851
:100480002F4620468847B84205460AD16C2F27D010
:100490004FF48060E168064320468847054605E042
:1004A00027E06C2F1AD04FF4807006430DB3A5F1EE
:1004B0004100192802D8203546F400664A462946EC
:1004C000204626604E46FFF74BFE80B101280BD038
:1004D000F61D26F0070000F1080965E74020E4E773
:1004E0008020D7E70020D5E706F104095CE728461D
:1004F00061E7206ABDE8F08710B5431C02E010F800
:10050000011B71B18107FAD14FF0013202C88C1A78
:100510008C4314EAC211F9D0C01A0A0603D0C01ED7
:1005200010BDC01A10BD0A0401D0801E10BD090202
:10053000FCD0401E10BD032A40F2308010F0030CA6
:1005400000F0158011F8013BBCF1020F624498BF26
:1005500011F801CB00F8013B38BF11F8013BA2F1C3
:10056000040298BF00F801CB38BF00F8013B11F03E
:10057000030300F02580083AC0F0088051F8043BDE
:10058000083A51F804CBA0E80810F5E7121D5CBF4B
:1005900051F8043B40F8043BAFF30080D20724BF7E
:1005A00011F8013B11F801CB48BF11F8012B24BF12
:1005B00000F8013B00F801CB48BF00F8012B704761
:1005C00010B5203AC0F00B80B1E81850203AA0E8EE
:1005D0001850B1E81850A0E81850BFF4F5AF5FEA22
:1005E000027C24BFB1E81850A0E8185044BF18C9D5
:1005F00018C0BDE810405FEA827C24BF51F8043B7C
:1006000040F8043B08BF7047D20728BF31F8023BCF
:1006100048BF11F8012B28BF20F8023B48BF00F863
:10062000012B70474FF0000200B5134694469646E2
:10063000203922BFA0E80C50A0E80C50B1F12001F5
:10064000BFF4F7AF090728BFA0E80C5048BF0CC0A3
:100650005DF804EB890028BF40F8042B08BF704701
:1006600048BF20F8022B11F0804F18BF00F8012B73
:1006700070477047704770472DE9F0470D4699461F
:100680009246044600F124080168880604D5E06912
:1006900021F01001216000E00120A84201DD471B8C
:1006A00000E00027A1697A1902EB0900081AA0618D
:1006B0002078C00602D42046FFF70AFE002608E094
:1006C000D4E901211AF806009047206A401C761CE4
:1006D00020624E45F4DB2078C0060AD52046FFF79D
:1006E000F7FD06E0D4E9012130209047206A401C44
:1006F0002062381EA7F10107F4DC07E0D4E90121EC
:1007000018F805009047206A401C2062281EA5F1B9
:100710000105F3DC2046FFF7F1FD2078000602D545
:100720000220BDE8F0870120FBE770472DE9FF4F6D
:100730000C461E464FF0FF378BB0D2E90001DDF8C2
:1007400060800A908A46C1F30A5505B93D460021EA
:1007500008464FF00000BAF1000F00F4400005DA3F
:1007600000EB80004FF4400101EA50004FEA90593D
:10077000B9F1010F00DDB9460A9850EA4A000ED0DF
:1007800044F61050A5F2FF3545432F14B8F1000F81
:100790001ED07542291E1EDDC9F100021CE0B8F111
:1007A000010F4FF0000001D0302103E0F24305E0DB
:1007B0002154401CB042FBDB304600220021215472
:1007C0000B99C1F80880C1E900200FB0BDE8F08F97
:1007D000BD1B6D1CDEE74A4600DA694206A800F040
:1007E0005BFA06AB93E8070003AB83E807005046CB
:1007F0000A9900F03CFB8DE80700A0F500501F3877
:1008000000900398002D0ADD42F21F014A46084479
:10081000002303A90390684600F0A5FD09E0A0F5B8
:1008200000504A461F38002303A90390684600F091
:10083000AFFD8DE807000004000C03D04FF0FF303F
:10084000410800E01046B8F1000F03D000220092EA
:1008500015461EE0751E05D400F098F93032625539
:100860006D1EF9D5B3460122084302D000227F1C39
:1008700004E02078302801D100227F1E002A099749
:1008800084D01DE0112D07DA00F080F93032625576
:100890006D1C50EA0102F5D1084302D00098C8B19E
:1008A0000EE00021681E05E0235C625C6354225464
:1008B000401E491C8142F7DBAB46A81B401E099035
:1008C000002004F80B000B98099AC0F80880C0E9D2
:1008D000002B7AE711264FF0000857E72DE9F04F7B
:1008E00088460446D21D22F0070191B0D1E90001EB
:1008F000CDE90A0104F0EBF802460B98C00F01D0D5
:100900002D2007E02068810701D52B2002E020215F
:1009100001EAC000032A099001D0072A05DB03463B
:100920004146204600F078F90BE12078800601D599
:10093000E06900E00620B8F1650F814606D0B8F105
:10094000660F18D0B8F1670F70D131E00020B9F10F
:10095000110F009001DB112301E009F101030AAA44
:1009600001A90CA8FFF7E2FEDDE90C70002609F1F1
:100970000105834647E001204B4600904FF00047B9
:100980000AAA01A90CA8FFF7D1FEDDE90DB00C9968
:100990005D46002610B909F101000D18B9EB0500FC
:1009A00003D4C0F1FF3609F10105A5EB09002BE0E6
:1009B000B9F1010F01DA4FF001090020B9F1110F6F
:1009C0000090484601DD112300E003460AAA01A970
:1009D0000CA8FFF7ABFEDDE90C704D460026834600
:1009E000207800070AD4AB4500DA5D4601A8012D46
:1009F00004DD411911F8011C302907D04F4502DAF6
:100A000017F1040F04DA012082460FE06D1EEEE7B5
:100A1000002F02DCED1B3E4403E0781CA84200DD01
:100A20007D1CB81B00F1010A4FF000472078000739
:100A300003D4AA4501DB4FF0FF3A0021B7F1004F84
:100A40000DF143088DF8431024D002202B23002FF2
:100A500001DA7F422D230A21021EA0F1010000DCF1
:100A60005FB197FBF1FC97FBF1F201FB1C7C174691
:100A70000CF1300C08F801CDEEE7A8F1010003708D
:100A80002188090501D5452100E06521A0F1010873
:100A900000F8011C09980FA9A1EB0807FF1D00B180
:100AA0000120411901EBEA70A1693844081A401E7F
:100AB000A0612078C00602D42046FFF709FC0998FF
:100AC00028B1D4E901219047206A401C2062207897
:100AD000C00622D52046FFF7FBFB1EE0002E04DBFC
:100AE000B34502DD01A8805D00E03020D4E901219A
:100AF0009047206A401C2062761CAAF101005FEA40
:100B0000000A0AD100F03EF8C0680168405CD4E9F0
:100B100001219047206A401C2062281EA5F1010592
:100B2000DCDC07E0D4E9012118F8010B9047206ACA
:100B3000401C2062381EA7F10107F3DC2046FFF7B6
:100B4000DDFB032011B041E601694A1C026108780F
:100B5000704700B58FB0CDE90131002105910549FD
:100B60007944CDE9031011466846FFF715FC0FB034
:100B700000BD0000E5FFFFFF0A6802F8010B0A60F4
:100B800070470000004870476C43002030B5B0F15A
:100B90000A024FEA900E71F100034EEA817EB0EB3B
:100BA0000E0061EB91014FEA101E4EEA017E10EB40
:100BB0000E0041EB11114FEA102E4EEA016E10EBC0
:100BC0000E0041EB11214FEA104E4EEA014E10EBA0
:100BD0000E0041EB1141401841F100014FEAD000F5
:100BE00040EA41704FEAD10110EB80054FEA8104E1
:100BF00044EA907444EB01046D1944EB0404521B65
:100C0000A3414FF0000348BF0A3200D530BD401C5D
:100C100041F1000130BD00002DE9F0411F460446BE
:100C200003260168072A01F4006004DB08B116A559
:100C300005E016A503E008B115A500E015A521F013
:100C400010002060A069C01EA0610FB1401EA0610D
:100C50002046FFF73DFB4FB1D4E9012138469047CC
:100C6000206A401C2062C01C206206E0206AFAE76D
:100C7000D4E9012115F8010B9047761EF8D22046E1
:100C8000FFF73CFBBDE8F0814E414E006E616E0007
:100C9000494E4600696E66002DE9F04781461646CA
:100CA0008AB0354878440DC88DE80D003248784444
:100CB000801C03AC0DC884E80D0041F69B3008444D
:100CC000372190FBF1F290FBF1F5A5F1800501FBD6
:100CD00012041B3C02D56442012000E00020DFF832
:100CE00098A080460027FA44AAF1BE0A0EE0E00769
:100CF0000AD03246684607EB470101230AEB81011F
:100D000000F046FB8DE8070064107F1C002CEED13C
:100D1000194F7F44AE3F19E0E80715D007EB0410E8
:100D20000DF1180A90E80E008AE80E00C068F04243
:100D300001D1981908903246012306A903A800F0B2
:100D400027FB03AB83E807006D10641C002DE3D183
:100D50004FF0010332466946B8F1000F03A802D0F4
:100D600000F001FB01E000F013FBC9E90001C9F844
:100D700008200AB0BDE8F087AC8200000048704748
:100D80004C4300207546FFF7F9FFAE460500694663
:100D9000534620F00700854618B020B5FFF75EFAED
:100DA000BDE820404FF000064FF000074FF000086C
:100DB0004FF0000B21F00701AC46ACE8C009ACE8ED
:100DC000C009ACE8C009ACE8C0098D46704710B551
:100DD0000446AFF300802046BDE81040FFF7DDB9C0
:100DE0004FF0013C50F8042B51F8043B9A4221D1BA
:100DF000A2EB0C03934313EACC1317D150F8042B46
:100E000051F8043B9A4215D1A2EB0C03934313EA29
:100E1000CC130BD150F8042B51F8043B9A4209D162
:100E2000A2EB0C03934313EACC13DBD04FF000008A
:100E3000704700BFD01A01BAB1FA81F101F0180170
:100E400022FA01F0CB40C1F12001DBB2C0B2C01ADE
:100E50002CFA01F3D11A914311EAC311E6D170477C
:100E600001491820ABBEFEE72600020070475FEA8A
:100E7000400C08BF91F0000F4FEA8C234FEAC122CB
:100E800043EA51514FEA1C5018BF00F5F0404FEAB9
:100E9000300018BF41F000415FEA6C5C00F029802F
:100EA000BCF1FF3F08BF40F080407047130C06BF05
:100EB00012044FF0100C4FF0000C130E04BF12027E
:100EC0000CF1080C130F04BF12010CF1040C930F6A
:100ED00004BF92000CF1020CD30F04BF52000CF1BE
:100EE000010C11464FF00002A0F11F00A0EB0C0016
:100EF000704711F0004F08BF704731F000413FF4D8
:100F0000D5AF0B0C06BF09044FF0100C4FF0000CCE
:100F10000B0E04BF09020CF1080C0B0F04BF0901F2
:100F20000CF1040C8B0F04BF89000CF1020CCB0FE9
:100F300004BF49000CF1010CCCF12003A0EB0C0024
:100F400022FA03F302FA0CF241EA030100F1010074
:100F5000704720F07F4C80EA030023F07F47ACEB22
:100F6000070303F57C5300F0004003F1FF032DE974
:100F700080494FEA154B09B44FEA144325EA0B4E5A
:100F800024EA03480FF2042606EB132749083E78AB
:100F90005FEA320203FB0667C7F5000707FB06F6A8
:100FA0004FEA54374FEAD64606F1020607FB066CB5
:100FB000CCF1005C4FEA1C472CEA074C07FB06F417
:100FC0000CFB06F504EB15464FEA961634BF0020DD
:100FD0004FF000404FEAD13706FB07FC4FEA1C4CAC
:100FE0000CFB0BF7D21B03FB0CF761EB07010CFBAF
:100FF0000EF7B0EB074072EB17420CFB08F734BF5B
:10100000A2EB0742B2EB074261EB17414FEA0C44F7
:101010004FEA910706FB07FC4FEA1C4C0CFB0BF751
:10102000B0EBC74072EB573203FB0CF734BFA2EBB7
:10103000C742B2EBC74261EB57310CFB0EF7B0EB86
:10104000C70072EB57720CFB08F734BFA2EBC70264
:10105000B2EBC70261EB5771039F4FEA816141EA2E
:10106000921104EBCC044FEAD1374FEA826206FBBF
:1010700007FC42EA90124FEA80604FEA1C4C0CFBDE
:101080000BF7D21B03FB0CF761EB07010CFB0EF710
:10109000B0EB074072EB17420CFB08F734BFA2EB32
:1010A0000742B2EB074261EB17414FEA8C554FEA1A
:1010B000910704EB9C2406FB07FC4FEA1C4C0CFB3D
:1010C0000BF7B0EBC74072EB573203FB0CF734BFA2
:1010D000A2EBC742B2EBC74261EB57310CFB0EF7F4
:1010E000B0EBC70072EB57720CFB08F734BFA2EBF2
:1010F000C702B2EBC70261EB577115EB4C254FEA03
:10110000816141EA92114FEA82624FEAD13742EAA5
:10111000901206FB07FC44F100044FEA80604FEA9E
:101120001C4C0CFB0BF7D21B03FB0CF761EB07010C
:101130000CFB0EF7B0EB074072EB17420CFB08F705
:1011400034BFA2EB0742B2EB074261EB174115EB4C
:101150001C154FEA813141EA92414FEA823242EA5C
:1011600090424FEA80304FEA0C7644F1000448EA9E
:1011700003434EEA0B484FF0000EB2EB080C71EB44
:10118000030724BF624639464EEB0E0E4FF0000BAC
:101190000018524149414BEB0B0BB2EB080C71EBC1
:1011A00003077BF1000B24BF624639464EEB0E0E5F
:1011B0004FF0000B0018524149414BEB0B0BB2EBC7
:1011C000080C71EB03077BF1000B24BF6246394624
:1011D0004EEB0E0E51EA020718BF46F0010616EB61
:1011E0000E7655F1000254F1000103D5BDE88901E6
:1011F000BDE80088BDE88901BDE80048B619524144
:1012000041EB0101A3F10103704780807F7E7D7C6B
:101210007B7A7978777676757473727171706F6E88
:101220006E6D6C6C6B6A6A69686867666665646433
:10123000636362616160605F5F5E5E5D5D5C5C5BBD
:101240005B5A5A595958585757565655555554542C
:10125000535352525251515050504F4F4F4E4E4D8A
:101260004D4D4C4C4C4B4B4B4A4A4A4949494848D6
:101270004847474747464646454545444444444316
:1012800043434342424242414141002B9C4630D4B9
:1012900077002BD01CB54FEA370703B44FF010008E
:1012A0004FF01001BAF1000F06D0BCF1000FDCBF07
:1012B00040F0080040F008014FF000000FBCBDE80E
:1012C00010400BF1010BBBF1010F08BF5FEA1707DC
:1012D00022BF12F1010211F101014FF0004143F16F
:1012E000000300F0004043EA00007047F9D35708BC
:1012F000D0E746EA064613F1400F4FEA16461FDDD7
:1013000013F1200FDFBF16430A46002120335B4252
:10131000BED0C3F1200746EA064602FA07F74FEAB5
:10132000164646EA0706C3F1200722FA03F201FA3D
:1013300007F721FA03F14FF0000342EA0702A7E79B
:1013400046EA020646EA06464FEA164646EA01061D
:10135000BCBF46EA0646360C4FF000034FF00002D1
:101360004FF0000194E72DE9804C9A46934670B403
:1013700091E8380007C831EA400C48BF34EA430C12
:1013800003D5FFF7E6FDFFF780FFF0BCBDE8008C5A
:101390002DE9804C9A46934670B491E8380007C80E
:1013A00010F0804F08BF13F0804F03D100F005F814
:1013B000FFF76BFFF0BCBDE8008C20F07F4780EAB0
:1013C000030023F07F4C07EB0C03A3F57C5300F0E4
:1013D0000040A3F1FE0392F0000F00F0B38095F0FF
:1013E000000F00F077802DE901494FEA11404FEAE4
:1013F000144621EA004800FB06FC24EA064708FBE5
:1014000006F607FB08F800FB07F718EB06484CEB5D
:10141000164C4FEA124B18EB07484FEA15464CEBB7
:10142000174022EA0B4E0BFB06FC25EA06470EFB93
:1014300006F607FB0EFE0BFB07F71EEB064E4CEB0A
:10144000164C4FF000061EEB074E4CEB174B18EBFB
:101450000B0840F1000018EB0E0B58EB000840F1B0
:1014600000008F1A4FF000013CBFC943661B14BF38
:10147000B5EB040C00213CBFC943F61B4FEA1744EF
:101480004EEA8E0E27EA04454FEA1C4704FB07622A
:101490002CEA074C05FB07F70CFB05F604FB0CFCDC
:1014A00016EB074642EB174216EB0C4642EB1C428A
:1014B0001BEB060658EB0202414146EA9E0601D5A7
:1014C000BDE80189B619524141EB0101A3F10103C5
:1014D000BDE801894FEA14454FEA114724EA054661
:1014E00021EA074C05FB07F406FB07F70CFB06F1A6
:1014F00005FB0CFC11EB074144EB17444FEA124784
:1015000011EB0C4144EB1C4422EA074C05FB07F2AB
:1015100006FB07F70CFB06F605FB0CFC16EB074673
:1015200042EB174216EB0C4642EB1C456A1854F18D
:10153000000148BF7047B619524141EB0101A3F1C8
:101540000103704795F0000F37D04FEA11424FEA80
:10155000144721EA024624EA074C02FB07F106FB86
:1015600007F70CFB06F402FB0CFC14EB074441EB01
:1015700017414FEA154714EB0C4441EB1C4125EA97
:10158000074C02FB07F506FB07F70CFB06F602FB10
:101590000CFC16EB074645EB174516EB0C4645EBE6
:1015A0001C42121951F1000148BF7047B61952414F
:1015B00041EB0101A3F1010370474FEA14454FEAE3
:1015C000114724EA054621EA074C05FB07F106FB13
:1015D00007F70CFB06F24FF0000605FB0CFC12EBC4
:1015E000074241EB174112EB0C4251EB1C4148BF43
:1015F0007047921841EB0101A3F101037047FEE728
:1016000010B504460298216022716371A0712820F0
:10161000A0720620E0710C20207214206072082055
:10162000E072322000F0F4FA00223321204600F06C
:1016300069F800223321204600F064F8052000F00C
:10164000E7FA00223221204600F05CF8052000F085
:10165000DFFA00222021204600F054F8052000F097
:10166000D7FAE1790022204600F04CF8217A0022D6
:10167000204600F047F8617A0022204600F042F848
:10168000A17A0022204600F03DF8002201212046E8
:1016900000F038F820460022BDE81040022100F09A
:1016A00031B830B4447900238C4201D8641EE1B2D1
:1016B0008479944201D8641EE2B232B1012A06D084
:1016C000022A06D0032A06D007E00B4605E0403187
:1016D00002E0143100E05431CBB230BC43F0800161
:1016E000002200F00FB8012200F00CB870B50C46D3
:1016F000054603E02846641CFFF7F5FF2178002922
:10170000F8D170BD7CB506460807040EF07A01F0EA
:10171000F00518B145F0080544F00804012A01D08D
:101720002AB108E045F0010544F0010403E025F08A
:10173000010524F0010445F004008DF804000120A7
:1017400000F066FA8DF8055044F004008DF80600AC
:10175000012000F05DFA4FF47A708DF80740009098
:101760003179042301AA306800F0DAFC7CBD000066
:1017700010B50D4C206D06F02FFF06F079FE0246E5
:101780000B460AA104F10A00FEF78EFD206906F05F
:1017900023FF06F06DFE024604F154000B46BDE83F
:1017A000104004A1FEF780BD0C00002025322E3031
:1017B0006600000025332E3066000000064B01282D
:1017C00006D0002806D100222021184600F0D9BBFF
:1017D0000122F9E7704700000008014010B50146FA
:1017E000002002F0E7F90021BDE81040042002F0DB
:1017F000E1B9000008490A68904200D9104607493B
:101800000968884200D20846401A64235843511A96
:10181000B0FBF1F070470000080000200400002039
:1018200010B501221103044800F0ABFBBDE81040E5
:10183000012000F0EDB90000000C014070470000ED
:1018400010B5124C0221204600F0D6F901220221E7
:10185000204600F096FB00220221204600F091FB7A
:101860004FF4F07003F08AFB0221204600F0B9F932
:10187000502003F083FB0221204600F07DFB04464C
:101880004FF4C87003F07AFB204610BD00080140F9
:1018900070B5FFF7D5FF00282BD1CC2000F084F8DD
:1018A000442000F081F840F2EE2000F0B1F9FFF79B
:1018B000C7FF00281DD1CC2000F076F8BE2000F034
:1018C00073F800F03DF8044600F03AF8054620466B
:1018D00006F082FE6FF0030106F085FF0446280142
:1018E00006F07AFE214606F0EFFDBDE8704006F0F6
:1018F00053BE70BD10B5114C0221204600F07CF99A
:1019000001220221204600F03CFB00220221204659
:1019100000F037FB022003F031FB0221204600F0EB
:1019200060F9092003F02AFB0221204600F024FB85
:101930000446412003F022FB204610BD0008014070
:1019400070B500254FEA0504FFF7D4FFA0402843F7
:10195000641CC5B2082CF7DB284670BD70B5114D6C
:1019600004460221284600F047F9012202212846B8
:1019700000F007FB00220221284600F002FB012CA8
:1019800001D014B108E00F2000E04B2003F0F6FA7C
:101990000221284600F025F9BDE870400A2003F036
:1019A000EDBA00000008014070B50446082504E0C7
:1019B00004F00100FFF7D2FF64086D1EF8D270BD7D
:1019C00072B602A005F01AFCFEE700000A4C4F496F
:1019D0002121212121212121212121212121210018
:1019E000002200F001B8000030B50E4B0546012082
:1019F0005C7A012C15D8587A00241C54587A03EBD1
:101A0000800045605D7A03F108002A54587A421C30
:101A10005A72303008703A2048702F208870CC708D
:101A2000002030BD102A002000B585B000210091B3
:101A300001210191CDE9020100F09AF904A968465B
:101A400000F0F8F800F04AF905B000BD06490020A2
:101A5000C8610648016941F004010161016941F072
:101A60004001016170470000D82900200020024099
:101A7000064A0021D16106490A6942F002020A6160
:101A80004861086940F0400008617047D82900208B
:101A900000200240044B0022DA61044A136943F03B
:101AA0000103136101807047D82900200020024003
:101AB0000068C0B27047034610B5002001465A586E
:101AC000CC00D2B2A2401043491C0429F7DB10BD60
:101AD00014480022C168CB06134904D5CA6942F0F4
:101AE0000202CA611022C3685B0705D5CB6943F0C7
:101AF0000103CB6142F00402C369DB0707D0CB6965
:101B000043F00403CB61C16921F00101C161A2F579
:101B10008071013901D0C2607047C16921F00101B3
:101B2000C161704700200240D829002070B50546E9
:101B300000F02CFA0646114C09E0681C07D025B1CC
:101B400000F024FA801BA84201D9032070BDE06890
:101B5000C007F2D1E068800601D52020E060E0688F
:101B6000C00605D4E069C00702D1E068400703D58C
:101B7000FFF7AEFF012070BD002070BD00200240C5
:101B80002DE9F041002507460C46561C06E0218849
:101B900007EB450000F007F8A41C6D1CB5EB560FD1
:101BA000F5D3BDE8F08170B50C46054600F0E0F8CD
:101BB000224600232946012000F09AF8BDE8704033
:101BC00000F08CB870B50C46054600F0D1F82246FE
:101BD00000232946022000F08BF8BDE8704000F099
:101BE0007DB81FB50022CDE900120121CDE9021216
:101BF000694600F0D1F81FBD1FB5002200910121F8
:101C0000CDE9011202210391694600F0C5F81FBD1C
:101C100070B5044600F0BAF90546601C02D00448CD
:101C20000078044400F0B2F9401BA042FAD370BD22
:101C3000800000202DE9F047054626480F46012682
:101C4000017E01290FD00121814601762868DFF845
:101C500088804CF25034022808D0A2462046FFF774
:101C600065FFA8B131E00220BDE8F0872046FFF70C
:101C70005DFF08BB0120FFF7E9FE2046FFF756FF96
:101C8000D8F81010064621F00401C8F810101CE026
:101C90004FF0FF303860AC6811E02046FFF7E8FEF7
:101CA0005046FFF743FFD8F81010060021F002015C
:101CB000C8F8101001D03C6007E004F58064D5E955
:101CC000020100EB8120A042E7D8002189F818101A
:101CD0003046C9E7D82900200020024003480169A6
:101CE00041F08001016100207047000000200240A7
:101CF0002DE9F05F07461C4888460024017E154602
:101D00001E46012909D00121814601764CF2503A44
:101D10005046FFF70BFF18B122E00220BDE8F09F0C
:101D2000012F02D0022F00D00427D346DFF83CA0B9
:101D3000220128463146FEF7A3FA81B208EB44009F
:101D4000FFF7A8FE5846FFF7F1FEDAF8102022F060
:101D50000102CAF8102018B9641CE4B2BC42E7D3EF
:101D6000002289F81820D9E7D82900200020024055
:101D7000064900200A69120607D5054A4A60054A45
:101D80004A600969090600D5012070470020024019
:101D900023016745AB89EFCD2DE9F84FDFF8B89106
:101DA000002409F1040A0AF1040B23460F270BF162
:101DB000040EC9E00125A5402A40AA427DD1674E04
:101DC000D1F804C0ACEB0608B44532D014DCBCF149
:101DD000030F3AD009DCBCF1000F2AD0BCF1010F8F
:101DE0001CD0BCF1020F31D11DE0BCF1110F17D096
:101DF000BCF1120F2AD119E0B8F5881F19D006DC02
:101E0000B8F5803F15D0B8F5801F1FD111E0B8F5A7
:101E1000001F0ED0B8F5041F18D10AE0CB6815E0FA
:101E2000CB681B1D12E0CB6808330FE0CB680C3386
:101E30000CE08B682BB1012B4FF0080303D04561F8
:101E400004E0042302E0056100E00023FF2A01D83A
:101E5000064601E000F104064FEA840501D9A5F128
:101E60002005D6F8008007FA05FC28EA0C0803FADA
:101E700005F548EA0508C6F800804D68ED0062D512
:101E8000374DAE6946F00106AE61AD6924F0030638
:101E900005F001050095334D06EB050CDCF8085004
:101EA000A607360F07FA06F825EA0805DFF8B88016
:101EB000404503D14FF0000817E044E0DFF8AC8064
:101EC000404502D14FF001080FE0DFF8A480404503
:101ED00002D14FF0020808E0DFF89880404502D1B7
:101EE0004FF0030801E04FF0040808FA06F848EA4A
:101EF0000508CCF808804D68D9F80060ED034D4620
:101F000001D5164300E096432E604D68DAF8006074
:101F1000AD03554601D5164300E096432E604D684B
:101F2000DBF80060ED025D4601D5164300E0964304
:101F30002E604D68DEF80060AD02754601D516438F
:101F400000E096432E60641C0D682A46E5407FF44D
:101F500031AFBDE8F88F000000040140000011100F
:101F6000001002400000014000080140000C014048
:101F700000100140001401408068084000D001209A
:101F800070470AB1016170470904FBE701488068A6
:101F9000704700008000002070B5040025D094F840
:101FA0003D00002520B984F83C50204600F04EF951
:101FB000242084F83D002068016821F001010160BF
:101FC0002068016841F4004101602068016821F443
:101FD0000041016000F016FB4D4A6168914201D852
:101FE0004C4900E04C49884201D2012070BD4B4968
:101FF0002368B0FBF1F15E6826F03F060E435E6099
:102000006368934206D94FF4967359434FF47A7339
:10201000B1FBF3F12368491C1E6A26F03F063143E9
:1020200019626168914210D84900401EB0FBF1F27C
:10203000521CC2F30B02042A01D2042022E0B0FB9E
:10204000F1F0401CC0F30B001CE0A268F2B301EBFE
:10205000C10303EB0116431EB3FBF6F35B1C43F411
:1020600080431B0549D092B301EBC10202EB011181
:10207000401EB0FBF1F0401CC0F30B0040F4804068
:1020800040F400402168CA694CF6FF739A4310433C
:10209000C861D4E9071001432068026822F0C00239
:1020A00011430160D4E9030101432068826848F2CA
:1020B000FF339A4311438160D4E905010843216845
:1020C000CA6822F0FF021043C86001E00EE016E08B
:1020D0002068016841F0010101602564202084F836
:1020E0003D00256384F83E50002070BD01EB4106A1
:1020F000431EB3FBF6F35B1CB3E70120C2E701EB21
:102100004101401EB0FBF1F0401CC0F30B00B7E7EB
:10211000A086010080841E0000093D0040420F009F
:102120002DE9F84F1F4690468A460446DDF8289070
:10213000FFF72CFF054694F83D0020287FD1192396
:10214000012240492046009501F0E0FA002876D1AE
:1021500094F83C00012872D0012084F83C002068EB
:102160000168C90703D1016841F0010101602068DD
:10217000016821F400610160212084F83D001020F5
:1021800084F83E0000262664C4F824806785608DAC
:1021900020852D48E0622B464A465146204601F0F4
:1021A00041FA90B9206841698069009036E02A467A
:1021B0004946204601F029FB50B1206C042804D187
:1021C0002068016841F4007101600120BDE8F88FCA
:1021D000606A216800780861606A401C6062618DF5
:1021E000491E6185218D491E89B221852268536966
:1021F000DB435B070BD451B100781061606A401C6F
:102200006062608D401E6085208D401E20852A46BC
:102210004946204601F054FA0028CED1208D0028EE
:10222000C5D154F83D0B016841F4007101602020D4
:1022300004F81E09E67766770020C7E7FFE702206B
:10224000C4E70000020010000000FFFF10B586B0D8
:102250000021009101910291039100680F49884289
:102260001AD10F4CA06940F00800A061A06969462E
:1022700000F008000490C02000901220019003207C
:1022800003900848FFF788FDE06940F40010E06122
:10229000E06900F40010049006B010BD0054004046
:1022A00000100240000C014070B5040011D02168FC
:1022B0004CF6CC400860216845F255500860D4E9DE
:1022C000000141602168A0688860FFF75FFE054655
:1022D0000DE0012070BD00BFFFF758FE401B27280E
:1022E00005D92068C068800701D0032070BD206830
:1022F000C0688007F0D121684AF6AA200860002053
:1023000070BD00684AF6AA210160002070470000F5
:102310000248816802781144816070478000002083
:10232000074810B5016841F010010160032000F07A
:10233000A1F8002000F006F800F04AF8002010BDD7
:102340000020024030B505461C4887B0816941F441
:1023500000618161806906A900F40060009001A815
:1023600000F030F900F05EF91549164AB0FBF1F1C2
:102370001548491E0260416040F2E7320021C0E981
:1023800003218160816100F091FD040012D10E48AB
:1023900000F0E2FD04000DD1192000F03DF8102DF1
:1023A00007D200222946192000F044F807480560AA
:1023B00000E0012407B0204630BD000000100240BC
:1023C00040420F00002C01408C2900208400002096
:1023D0000F4808B5816941F001018161816901F00F
:1023E00001010091C16941F08051C161C0690022C1
:1023F00000F0805000900F21901E00F01BF805485F
:10240000416821F0E06141F00071416008BD0000C9
:102410000010024000000140002809DB00F01F020C
:10242000012191404009800000F1E020C0F8001136
:1024300070470000F0B40E4B1B680C46C3F3022338
:10244000C3F10705042D00D90425191D072901D260
:10245000002300E0DB1E012606FA05F1491E21409B
:1024600099409E40761E16403143F0BC02F043BBBB
:102470000CED00E0064900F0070208684FF6FF0384
:10248000184040EA0220034A1043086070470000E9
:102490000CED00E00000FA052DE9F0470F460500BD
:1024A00061D0434E306800F00700B84209D230686E
:1024B00020F0070038433060306800F00700B84271
:1024C00051D128683B4C810712D5400703D560687D
:1024D00040F4E06060602878000703D5606840F44D
:1024E000605060606068A96820F0F0000843606098
:1024F0002878C00728D06868012810D021680228F1
:1025000010D0890700292EDA616821F00301014308
:102510006160FFF73BFD804641F288390DE021689C
:102520008903EFE78901EDE7FFF730FDA0EB080134
:10253000494502D90320BDE8F0876068696800F06A
:102540000C00B0EB810FEFD1306800F00700B8420B
:102550000BD9306820F0070038433060306800F055
:102560000700B84201D00120E5E72878400705D5EB
:102570006068E96820F4E06008436060287800073C
:1025800006D56068296920F4605040EAC1006060A7
:1025900000F058F86168084AC1F30311515CC84063
:1025A0000649086006480068FFF7CCFE0020C2E735
:1025B0000020024000100240448900088C000020E6
:1025C000840000200F2202600C4A536803F00303CA
:1025D0004360536803F0F0038360536803F4E063DF
:1025E000C36052684FF4E06303EAD2020261044818
:1025F000006800F00700086070470000001002400B
:10260000002002400448054900684968044AC1F3B3
:102610000221515CC84070478C000020001002402D
:10262000548900080448054900684968044AC1F310
:10263000C221515CC84070478C000020001002404D
:102640005489000812A185B00FC98DE80F0014A0AD
:10265000144A006804905168134801F00C03042BDD
:1026600010D0082B0ED1C1F38343C9031DF803001A
:102670000AD5516804AAC1F34041515C0A4A50434B
:10268000B0FBF1F005B0704708494843FAE7000095
:1026900002030405060708090A0B0C0D0E0F1010A3
:1026A000010200000010024000127A0000093D0003
:1026B0002DE9F84F040070D02078C04DC00749D0F4
:1026C0006868C0F38100012807D06868C0F3810002
:1026D000022809D16868C00306D52868800339D567
:1026E00060680028E7D035E06068B0F5803F0BD027
:1026F00010B1B0F5A02F11D0286820F480302860E8
:10270000286820F4802002E0286840F480302860A7
:10271000606890B1FFF73AFC06460AE0286840F48A
:1027200080202860F0E700BFFFF730FC801B6428A2
:1027300073D828688003F7D50CE0FFF727FC06461E
:1027400005E000BFFFF722FC801B6428F0D8286852
:102750008003F7D420789A4E80074FF001094FF09C
:10276000000839D5686810F00C0F07D06868C0F30E
:102770008100022809D16868C00306D42868800750
:1027800014D52069012808D110E02069B0B1C6F83D
:102790000090FFF7FBFB074605E00AE1FFF7F6FBB9
:1027A000C01B0228C4D828688007F7D5286861694B
:1027B00020F0F80040EAC10028600DE0C6F8008073
:1027C000FFF7E4FB074604E0FFF7E0FBC01B02282D
:1027D00023D828688007F7D4207800072CD57948BB
:1027E000A169D9B1C0F80090FFF7D0FB074604E01B
:1027F000FFF7CCFBC01B02280FD8686A8007F7D50B
:1028000071484FF4FA510068B0FBF1F0009000BF3E
:102810000098411E0091FAD20EE080E0C0F80080DE
:10282000FFF7B4FB074604E0FFF7B0FBC01B02282C
:1028300075D8686A8007F7D42078400760D5E869C2
:102840000027C00008D4E86940F08050E861E869DA
:10285000012700F0805000905C480168C90513D43E
:102860000168834641F480710160FFF78FFB824667
:1028700006E000BFFFF78AFBA0EB0A0064284ED8F1
:10288000DBF80000C005F5D5E06801280AD008B1E2
:10289000052813D0286A20F001002862286A20F059
:1028A000040002E0286A40F001002862E06841F27A
:1028B000883B98B1FFF76AFB82460BE0286A40F03C
:1028C00004002862EEE700BFFFF760FBA0EB0A01FF
:1028D00059455AD8286A8007F6D50CE0FFF756FB11
:1028E000824605E0FFF752FBA0EB0A0159454CD8A0
:1028F000286A8007F6D41FB1E86920F08050E861AB
:10290000E06988B36968C1F38101022944D00228D3
:10291000C6F8608004D0FFF739FB044638E034E0A5
:10292000FFF734FB074604E0FFF730FBC01B02282B
:102930002BD828688001F7D4206AB0F5803F05D1F4
:102940006868A16820F4003008436860D4E9080191
:102950000843696821F4741108436860C6F8609000
:10296000FFF714FB044606E025E000BFFFF70EFB6F
:10297000001B022809D828688001F7D51BE000BF9A
:10298000FFF704FB001B022802D90320BDE8F88FE3
:1029900028688001F4D40EE00128F7D06868226A24
:1029A00000F48031914204D1616A00F470108842D1
:1029B00001D00120EAE70020E8E700000010024013
:1029C00000004242800442428C000020007000401F
:1029D00070B5040009D0606A002540B125616561C9
:1029E000A56294F8510040B10CE0012070BD606810
:1029F000B0F5827FF4D0E561F2E784F850502046CC
:102A000000F040F8022084F851002068016821F0AD
:102A100040010160A088218900F4827001F4044122
:102A20000843A18901F400610843217C01F00201FF
:102A30000843217D01F001010843218B01F400715D
:102A40000843217F01F03801084394F8201001F079
:102A500080010843218D01F400510843216808607A
:102A6000A069042101EA1040216848602068C1691A
:102A700021F40061C1616565012084F851000020E6
:102A800070BD000030B585B000240094019402941C
:102A9000039400681549884225D11548C16941F45D
:102AA0008041C161C16901F480410491816941F0B3
:102AB0000801816180690F4D00F0080004904FF417
:102AC0002040009002200190032003906946284690
:102AD000FFF762F94FF48040CDE9000469462846CB
:102AE0000294FFF759F905B030BD000000380040EE
:102AF00000100240000C01402DE9F84F044690F808
:102B0000500000271D461646894601280DD04FF07B
:102B1000010B84F850B0FFF739FA804694F8510061
:102B2000BA46012804D0022793E00220BDE8F88FBE
:102B3000B9F1000F73D0002E71D0032084F851003A
:102B4000C4F854A0C4F83090A686E686C4F838A02D
:102B5000A4F83CA0A4F83EA0C4F844A0C4F840A047
:102B6000A068B0F5004F09D12068016821F040014C
:102B700001602068016841F48041016020680168BB
:102B8000490603D4016841F040010160E068B0F5F6
:102B9000006F606803D030B3012E24D041E008B14B
:102BA000012E1CD1206B21680088C86006E02068D7
:102BB0008168890709D5216B0988C160206B801C59
:102BC0002063E08E401EE08609E0FFF7DFF9A0EB0E
:102BD0000800A84202D3681C01D031E07DB3E08E2A
:102BE0000028E4D120E0206B21680078087306E01B
:102BF00020688168890709D5216B09780173206BEA
:102C0000401C2063E08E401EE0860AE0FFF7BEF91C
:102C1000A0EB0800A84203D3681C02D010E017E024
:102C20006DB1E08E0028E3D142462946204601F0EE
:102C3000BFFA08B120206065A06818B106E0FFE780
:102C4000032706E02068C16880680090606D00B1CD
:102C5000012784F851B084F850A0384666E72DE982
:102C6000F84F044690F8500000270A9E1D469246F1
:102C70008B464FF0010901280ED0012084F8500046
:102C8000FFF784F9804694F85100616801280CD060
:102C9000B1F5827F07D102E00220BDE8F88FA1687C
:102CA00009B9042801D00227C2E0BBF1000F27D0E8
:102CB000BAF1000F24D01DB394F85100042802D0BB
:102CC000052084F8510000206065C4F838A0E5872D
:102CD000A587C4F830B0E586A586206460642068C6
:102CE0000168490603D4016841F040010160E068D1
:102CF000B0F5006F606805D0E8B3012D46D07FE0E5
:102D0000012795E008B1012D39D1206B2168008899
:102D1000C860206B801C2063E08E401EE0862EE0A1
:102D20002068816889070FD5E18E69B1B9F1010F7B
:102D30000AD1216B0988C160206B801C2063E08E62
:102D4000401EE0864FF0000920688168C9070CD05A
:102D5000E18F51B1C068A16B0880A06B801CA0639B
:102D6000E08F401EE0874FF00109FFF70FF9A0EB5D
:102D70000800B04200E009E001D3701C50D1E08EA1
:102D80000028CDD1E08F0028CAD13FE0206B216818
:102D900000780873206B401C2063E08E401EE086A4
:102DA0002EE02068816889070FD5E18E69B1B9F1FD
:102DB000010F0AD1216B09780173206B401C20633D
:102DC000E08E401EE0864FF0000920688168C90748
:102DD0000CD0E18F51B1C068A16B0870A06B401C92
:102DE000A063E08F401EE0874FF00109FFF7CEF8A7
:102DF000A0EB0800B04202D3701C01D010E07EB1FD
:102E0000E08E0028CDD1E08F0028CAD1424631465D
:102E1000204601F0CDF928B101272020606507E0A8
:102E2000032705E0A06818B92068C1688068009091
:102E3000012084F85100002084F8500038462CE727
:102E40007047704770B590F83C20012A26D00124C5
:102E500080F83C40022280F83D2003685A689D6853
:102E600022F070060A6832435A600D4B02689A429B
:102E700008D0B2F1804F05D00A4B9A4202D00A4BDB
:102E80009A4204D1496825F080031943916080F883
:102E90003D40002180F83C10084670BD022070BD06
:102EA000002C0140000400400008004010B5040060
:102EB00003D094F83D0010B107E0012010BD0020C0
:102EC00084F83C00204600F01FF8022084F83D0002
:102ED000211D206801F0F4FB012084F8460084F8ED
:102EE0003E0084F83F0084F8400084F8410084F8F4
:102EF000420084F8430084F8440084F8450084F8D4
:102F00003D00002010BD000008B501681048B1F177
:102F1000804F14D00F4A914219D1C16941F0040188
:102F2000C161C069002200F00400009005211E204C
:102F3000FFF780FABDE808401E20FFF76DBAC169AF
:102F400041F00101C161C06900F00100009008BDBD
:102F5000001002400008004090F83D10012901D007
:102F600001207047022180F83D100168CA6842F0D4
:102F70000102CA6000680B49884208D0B0F1804F56
:102F800005D00949884202D00849884204D18168A5
:102F900001F00701062903D0016841F00101016039
:102FA00000207047002C0140000400400008004051
:102FB00070B5044690F83C00012817D0012584F82C
:102FC0003C50022084F83D002068826822F077029D
:102FD00022F47F4282600868502830D00DDC20281F
:102FE0004DD005DC98B310283BD148E0022070BDDD
:102FF000302844D0402834D139E0602828D07028C7
:1030000006D0B0F5805F2CD0B0F5005F29D10AE082
:10301000CB68D1E90121206801F095FB2068816827
:1030200041F0770109E0CB68D1E90121206801F086
:103030008AFB2068816841F48041816011E0CA68A0
:103040004968206801F034FC5021206807E016E050
:10305000CA684968206801F03CFC6021206801F0E2
:103060007CFB84F83D50002084F83C0070BDCA68A9
:103070004968206801F01CFC40212068EFE72268C5
:1030800001461046EBE7704770B5044600680169D9
:103090004FF00005C943890715D4C168C9438907A2
:1030A00011D4E91E01610120207720688069800722
:1030B000204602D0FFF7E7FF04E000F0BFF820460B
:1030C00000F062F9257720680169C943490717D4E0
:1030D000C168C943490713D46FF00401016102209C
:1030E00020772068806910F4407F204602D0FFF7E7
:1030F000CAFF04E000F0A2F8204600F045F9257769
:1031000020680169C943090716D4C168C943090782
:1031100012D46FF008010161042020772068C06993
:103120008007204602D0FFF7AEFF04E000F086F8EB
:10313000204600F029F9257720680169C943C906AE
:1031400017D4C168C943C90613D46FF010010161D7
:10315000082020772068C06910F4407F204602D004
:10316000FFF791FF04E000F069F8204600F00CF949
:10317000257720680169C943C90708D1C168C943D7
:10318000C90704D1891E0161204600F04DF920686D
:103190000169C943090609D4C168C943090605D4B0
:1031A0006FF0800101612046FFF74AFE2068016947
:1031B000C943490609D4C168C943490605D46FF01B
:1031C00040010161204600F049F920680169C943C6
:1031D00089060BD4C168C943890607D46FF0200162
:1031E00001612046BDE87040FFF72BBE70BD0000B6
:1031F00000B585B000210091019102910391006812
:103200000B49884211D10B48816941F00401816169
:103210008069694600F004000490C02000900220FC
:10322000019003900448FEF7B7FD05B000BD000013
:10323000000400400010024000080140704770B5D3
:10324000044690F83C000D4601280AD0012084F87D
:103250003C0042B1042A18D0082A2AD00C2A4DD1A9
:1032600039E0022070BD206801F080FA2068816991
:1032700041F0080181612068816921F004018161C8
:10328000206881692A69114311E0206801F096FAEB
:103290002068816941F4006181612068816921F4BD
:1032A00080618161206881692A6941EA0221816126
:1032B00024E0206801F0AEFA2068C16941F00801FD
:1032C000C1612068C16921F00401C1612068C16940
:1032D0002A69114311E0206801F0C8FA2068C16929
:1032E00041F40061C1612068C16921F48061C1615C
:1032F0002068C1692A6941EA0221C161002084F87D
:103300003C0070BD10B5040003D094F83D0010B12E
:1033100007E0012010BD002084F83C00204600F0AA
:103320001FF8022084F83D00211D206801F0C8F933
:10333000012084F8460084F83E0084F83F0084F8B9
:10334000400084F8410084F8420084F8430084F887
:10335000440084F8450084F83D00002010BD0000C2
:1033600008B500680649884208D10648C16941F09D
:103370000201C161C06900F00200009008BD0000B8
:1033800000040040001002407047000010B50446E1
:10339000022249B104290ED0082913D094F8410023
:1033A000012816D0012010BD94F83E000128F9D163
:1033B00084F83E200FE094F83F000128F2D184F811
:1033C0003F2008E094F840000128EBD184F8402029
:1033D00001E084F841200122206801F0A7F90F499B
:1033E0002068884203D1426C42F400424264206863
:1033F000884208D0B0F1804F05D00949884202D0F8
:103400000849884204D1816801F00701062903D0E8
:10341000016841F001010160002010BD002C014055
:1034200000040040000800400A4910B5024608792F
:10343000401C0871087918B10020087100F07EFC6A
:1034400005491068884203D1BDE81040FEF760BF0F
:1034500010BD00000C000020002C0140704770B52A
:10346000040004D094F83D00002510B106E00120CE
:1034700070BD84F83C50204600F022F8242084F8E7
:103480003D002068C16821F40051C160204601F070
:1034900085FA2068016921F4904101612068416941
:1034A00021F02A0141612068C16841F40051C160E6
:1034B0002564202084F83D0084F83E00002070BD83
:1034C00030B585B000240094019402940394006800
:1034D0001449884224D11448816941F480418161B2
:1034E000816901F480410491816941F004018161A5
:1034F00080690E4D00F0040004904FF400700090BD
:10350000022001900320039069462846FEF744FC00
:103510002815CDE90004694628460294FEF73CFCD4
:1035200005B030BD003801400010024000080140E5
:103530002DE9F843044690F83D001F4616460D4617
:1035400020284CD1C5B1BEB194F83C00012846D02A
:10355000012084F83C004FF00008C4F8408021208E
:1035600084F83D00FEF712FDA6848146E684A0683B
:10357000B0F5805F03D004E00120BDE8F883206946
:1035800028B12E465FF0000584F83C800EE000264E
:10359000FAE78021204601F05DFAA0B9AEB116F835
:1035A000010B21684860E08C401EE084E08C4B46B3
:1035B0004FF0000200970028EBD14FF04001204669
:1035C00001F048FA30B10320D7E735F8020BC0F319
:1035D0000800E6E7202084F83D000020CDE7022027
:1035E000CBE7000001A003F009FEFEE70A6C6F695B
:1035F0000A00000001684A69D24352050FD46FF4F3
:1036000080624A61002140F8301F2022427381739A
:10361000026942F004020261017301207047002038
:1036200070470000F8B50446C06A1E460D461746AE
:10363000082807D0012805D010F5803F02D0206B64
:10364000122804D12068016841F48071016013469A
:1036500000224FF001112046009600F057F840B1CB
:1036600020680068C00502D54FF400702064032074
:10367000F8BD2069B0F5804F0ED00620216800EA21
:10368000D51040F0F000086133463A460B49204619
:1036900000F070F878B902E005F0FE0000E0E8B252
:1036A00021680861054933463A46891F204600F0E3
:1036B00061F80028DCD00120F8BD000008000100FE
:1036C00070B516460D4604460DE02046FFF792FF02
:1036D00008B1012070BD681C05D0FEF757FC801BA7
:1036E000A84207D835B120684069C0434007ECD4F0
:1036F000002070BD002044F8300F20216173A073BA
:10370000216941F0200121612073E2E72DE9F047B2
:103710001E4690460D460446C1F30747DDF820904B
:1037200008E0701C06D0FEF731FCA0EB0900B042A7
:103730000FD876B12068012F18D0806925EA0000E3
:103740000004000C14D000214145EAD00020BDE85F
:10375000F087002044F8300F20216173A0732169A5
:1037600041F02001216120730120F0E74069E5E785
:103770000121E9E72DE9F0479A4691460E460446B5
:1037800000254FF02008C1F3074725E02068406975
:10379000C043400514D42068016841F40071016001
:1037A00021686FF480604861256384F83D8084F867
:1037B0003E50206C40F00400206484F83C501FE030
:1037C000B9F1FF3F08D0FEF7E1FBA0EB0A01494544
:1037D0000CD8B9F1000F09D02068012F13D08069EF
:1037E00026EA00000004000C0BD0CFE744F8305F5D
:1037F00084F80D80A573206940F0200020612573B6
:103800000120BDE8F0874069EAE770B516460D462D
:1038100004460DE02046FFF7EDFE08B1012070BD23
:10382000681C05D0FEF7B2FB801BA84207D835B153
:1038300020684069C0430006ECD4002070BD002021
:1038400044F8300F20216173A073216941F02001F9
:1038500021612073E2E7000010B5002211462048E4
:10386000FDF71FFF1FA11E48FDF740FF00220921A1
:103870001B48FDF716FF1E491948FDF737FF0022C8
:103880000B211748FDF70DFFDF211548FDF72BFF32
:1038900000220C211248FDF704FF16A11048FDF785
:1038A00025FF012200210E48FDF7FBFE12A10C4866
:1038B000FDF71CFF012207210948FDF7F2FE0C4924
:1038C00007484A31FDF712FF01220A210448FDF79B
:1038D000E8FEBDE810400AA10148FDF707BF00005F
:1038E0002C2300204E6869657420646F3A00000044
:1038F0001600002043000000546F6320646F3A00FC
:103900002500000010B504490448FEF769F8024993
:10391000491E087010BD00007900002064000020DE
:103920002DE9F04786B000243048009401940294B9
:103930000394816941F010018161816901F01001F6
:103940000491816941F020018161816901F02001C8
:103950000491816941F004018161816901F00401F0
:103960000491816941F0080181618069DFF88080FC
:1039700000F008004FF4005504900022294640460C
:10398000FEF7FFFADFF86C90002202214846FEF7AE
:10399000F8FADFF864A06F10002239465046FEF7AF
:1039A000F0FA0126CDE90056022569464046CDE9E8
:1039B0000245FEF7F1F9CDE9005669464846CDE9E2
:1039C0000245FEF7E9F91B20CDE90004694650469F
:1039D0000294FEF7E1F9CDE9007669465046CDE95B
:1039E0000245FEF7D9F906B0BDE8F08700100240A5
:1039F0000010014000080140000C01400C4810B5C7
:103A00000A4901600B49416000214FF48042816006
:103A1000C0E9031241618161C1610162FEF7BCFA34
:103A2000002801D0FDF7CCFF10BD0000005400407D
:103A3000F8000020A08601000F4810B50D49016074
:103A40004FF48271416000218160C1604FF40072C7
:103A50000161C0E905120822C0E9072141628162C3
:103A60000A21C162FEF7B4FF002801D0FDF7A8FFCC
:103A700010BD0000003800405801002010B586B08D
:103A800000241448009401940294039404944FF089
:103A90008041059401603B21C0E901144FF6FF719C
:103AA000C0E903148461FFF701FA78B94FF480503C
:103AB000009069460748FFF77BFA38B9049404A9D7
:103AC00004480594FFF7BEF9002801D0FDF778FF00
:103AD00006B010BDB001002010B58AB000240794D4
:103AE0001C2168460894FCF79DFD174815490160A4
:103AF0003B21C0E9011440F2E731C0E903148461BD
:103B0000FFF700FCB8B9079407A90F480894FFF71E
:103B100099F980B96020CDE9000402940022694639
:103B200009480494FFF78BFB28B90422694606482C
:103B3000FFF785FB08B1FDF743FF0348FFF758FB8C
:103B40000AB010BD00040040F801002010B586B096
:103B5000002416480094019402940394049412499A
:103B6000059401604EF65F21C0E9011440F2E7318F
:103B7000C0E903148461FFF799F980B94FF48050CC
:103B8000009069460948FFF713FA40B92020CDE9B3
:103B9000040404A90548FFF755F9002801D0FDF7F2
:103BA0000FFF06B010BD00000008004040020020DA
:103BB000FEE7FEE70E4A6429D26800D9642151432A
:103BC0006422B1FBF2F20B490B6843F001030B6076
:103BD0000749096828B1042805D0082805D00A64D7
:103BE00070474A6370478A637047CA637047000032
:103BF000F8010020000400407CB541F6FF74FDF799
:103C00000FFE0025FF2000F007FB6D1C0A2DF9DBDD
:103C100000F0C0FA40208DF8000000208DF801006F
:103C20008DF802008DF803008DF8040095208DF8C2
:103C300005000621684600F0E1FA00F0C9FA012803
:103C400006D0641E00F0C4FA012801D0002CF8D17F
:103C5000FDF7E6FDFF2000F0DFFA02490120487081
:103C60007CBD00000000002010B5064C4FF4FA7037
:103C7000A4F8000000F0ACFAFF2802D02188002947
:103C8000F8D110BD1400002070B50F4C0546C820B7
:103C90000E46208000F09CFAFF2803D0FE2805D0B5
:103CA000002070BD20880028F4D1F9E72C466D1C57
:103CB00000F08EFA2070761EF8D200F089FA00F03B
:103CC00087FA012070BD00001200002070B50C467C
:103CD0000546FFF7C9FFFF2801D0FF2070BD284629
:103CE00000F09AFA200E00F097FAC4F3074000F0B3
:103CF00093FAC4F3072000F08FFAE0B200F08CFAD8
:103D0000402D07D0482D07D0012000F085FA4C2D1A
:103D100006D007E0952000E0872000F07DFA01E062
:103D200000F056FA5FF00A0400F052FA0106D5D509
:103D3000641E14F0FF04F7D170BD00000648C1886E
:103D400011B1C188491EC1800189002902D00189B1
:103D5000491E0181704700000C00002070B50E461E
:103D600005460024FFF780FFFF2820D1304600F0F1
:103D700053FAFD2E17D04FF40071284600F03EFA9A
:103D800000F026FA00F024FA00F022FA054600F0CE
:103D90001F00052803D0641CE4B2402CF4D900F0C5
:103DA00017FA0028FBD005F01F00052801D00020DD
:103DB00070BD012070BD00002DE9F84310B1012055
:103DC000BDE8F883DFF8248198F80000800702D569
:103DD00098F80000F4E7FFF70FFF00F0DBF900248C
:103DE00021464020FFF772FF01286ED1404E4FF46C
:103DF0007A7030804FF4D5714820FFF767FF0128B3
:103E00000DD000217720FFF761FF01283FD8002166
:103E10006920FFF75BFF012839D802243EE0002526
:103E20004FEA0D0700F0D4F978556D1CEDB2042D62
:103E3000F8D39DF80200012847D19DF80300AA2875
:103E400043D1450700217720FFF740FF012804D820
:103E500029466920FFF73AFF10B130880028F1D1D8
:103E6000308890B300217A20FFF730FF68BB002430
:103E700000F0AEF93855641CE4B2042CF8D39DF878
:103E80000000400601D50C241FE004241DE001249D
:103E900001E0022C02D00021412007E00021772020
:103EA000FFF714FF012804D800216920FFF70EFF57
:103EB00010B130880028ECD1308828B14FF400715F
:103EC0005020FFF703FF00B10024454688F8024068
:103ED000FDF7A6FC00F07CF924B1287820F0010061
:103EE000287001E000206870287869E70000002051
:103EF000120000207FB515460E4610B1042004B014
:103F000070BD01244A48052E04D00078C00713D0A4
:103F10000320F4E7297829B1012906D0022907D026
:103F2000042482E00021417004E0FFF765FE01E017
:103F300040785070002478E000F02CF90B2E51D01E
:103F400005DCEEB3012E07D0022E69D141E00C2E24
:103F50004BD00D2E64D154E000214920FFF7B6FE6E
:103F600078BB10216846FFF78FFE50B39DF8001014
:103F70000120B0EB911F09D19DF808209DF8091090
:103F800000EB022008440004800920E09DF80500B1
:103F90009DF80A1000F00F0000EBD1109DF80910F9
:103FA0009DF8072001F0030100EB41019DF8080096
:103FB000800900EB82009DF8062002F0030201E078
:103FC0000BE02EE000EB8220401CC91F88402860D7
:103FD00015E04FF40070288011E0FFF745FEFF2840
:103FE0000DD01EE00021492001E000214A20FFF70A
:103FF0006DFEB0B910212846FFF746FE88B10024B7
:104000000FE000217A20FFF761FE48B95FF000045D
:1040100000F0DEF8641CE4B205F8010B042CF7D3C1
:104020000424FDF7FDFB00F0D3F8204667E700000D
:10403000000000202DE9F0411C4615460E4638B917
:1040400034B121480178C90704D00320BDE8F081CC
:104050000420FBE78078400700D4550200F09AF86E
:104060004FF40077012C294604D05220FFF72EFE92
:1040700070B11AE05120FFF729FEE0B93946304609
:10408000FFF702FEB8B1FDF7CBFB00F0A1F818E096
:1040900039463046FFF7F8FD18B1641E06F5007684
:1040A000F6D100214C20FFF711FEFDF7B9FB00F01F
:1040B0008FF824B905E0FDF7B3FB00F089F8012083
:1040C000C4E70020C2E700000000002008B1012082
:1040D0007047014800787047000000202DE9F0414A
:1040E0001C4616460F4638B934B1294D2878C0070A
:1040F00004D00320BDE8F0810420FBE728784007C6
:1041000001D50220F6E7A878400700D4560200F057
:1041100041F8012C10D0A878800707D5002177201E
:10412000FFF7D4FD21465720FFF7D0FD3146592037
:10413000FFF7CCFD78B11CE031465820FFF7C6FDF3
:10414000F0B9FE213846FFF709FEC8B1FDF768FB5C
:1041500000F03EF819E0FC213846FFF7FFFD18B1EA
:10416000641E07F50077F6D1FD210020FFF7F6FD6C
:1041700030B1FDF755FB00F02BF834B10120B9E761
:10418000FDF74EFB00F024F8F8E70020B2E700004E
:104190000000002010B500224FF480510348FDF7C5
:1041A000F0FEBDE810400120FDF732BD000C0140DB
:1041B00038B50B46009204460022802100F03CF8FE
:1041C000002804D0606D40F020006065032038BDF9
:1041D0000EB5FF208DF80400074800688168890744
:1041E000FCD564200090012302AA01A90248FEF731
:1041F00036FD9DF808000EBD58010020054A1268E2
:1042000093689B07FCD50A46014664230148FEF7E4
:1042100073BC00005801002001B5064800688168A1
:104220008907FCD56423012269460248FEF764FC35
:1042300008BD0000580100202DE9F8431E469146B4
:1042400088460446089DFDF7A1FE401B351AFDF780
:104250009DFE074625480068C0F3CB30684338E030
:10426000701C37D0FDF792FEC01BA84203D215B1D7
:10427000009860B32CE02068416821F0E0014160C3
:104280006068B0F5827F0BD1A068B0F5004F02D016
:10429000B0F5806F04D12068016821F04001016011
:1042A000A06AB0F5005F09D12068016821F40051CF
:1042B00001602068016841F400510160012084F828
:1042C0005100002084F850000320BDE8F883002549
:1042D000401E00902068816838EA010004D0002167
:1042E0004945BDD10020F0E70121F9E78C0000200D
:1042F0001F4C00251F48FEF704F801F0D7FFE070BF
:1043000001281DD0022821D0032825D004282AD036
:1043100095B1A06C02F068FB4FF0FF31206C02F009
:104320009DF901466078087020784870A078887000
:10433000206C02F00FFA0025052002F083F9D9E77E
:10434000607800F00100401C6070E2E7207800F027
:104350000100401C2070DCE7A078642801D36420B1
:1043600004E0401D02E0A07800B1401FA070D0E73B
:104370000C0000204C0100200E4C4FF0FF360025B1
:104380003146A06C02F058FB6078C0070CD0207852
:10439000C0070CD0206DFDF72DFA2061FDF71EFA45
:1043A000012002F04FF9EBE728462561F6E7A078F7
:1043B000F3E700000C0000200648FDF7A2FFFDF720
:1043C000D7F9FFF749FA00F097FAC82002F03AF956
:1043D000F2E700004C0100201FB500250F4C6E1EB7
:1043E000324601A8216C02F06DF9029801788DF82F
:1043F000001041788DF8011080788DF802008DF85A
:104400000350A069FDF710FB04226946A069FDF77F
:10441000B7FB0A2002F016F9E2E700000C000020CA
:104420000EB50A4C4FF0FF3632466846616C02F01A
:10443000D3F9019DE069FDF7F7FA2946E069FDF738
:10444000C1FB0A2002F0FEF8EEE700000C0000209D
:104450000D4C41F2883500BFFDF71AFA206501289E
:1044600006D0A06C02F0C0FA284602F0EBF8F3E7A1
:1044700006A10C48FBF718FF0A4802F0BFFE00F047
:1044800051FBFDF79DFA00000C0000200A4C6F69FB
:104490002063616D206269656E206E6869657420B5
:1044A000646F0A00382300201FB52E4C12222E48BC
:1044B000216A01F0BBF9607110B1C2B22BA13AE0E0
:1044C0003248C168284801F02BF8607110B1C2B2BF
:1044D0002FA130E0206904F07FF803F0C9FF054602
:1044E0000E46206D04F078F803F0C2FF0B468DE80D
:1044F000690062692EA1501C606124483830FBF7C6
:10450000D3FE2248383000F019FB164B1F490246F3
:104510004C333831144801F0E3FA607110B1C2B283
:104520002DA108E000F0FEFA0F4800F0DFFF6071F7
:1045300068B1C2B230A115483830FBF7B5FE134858
:10454000383002F05BFE00F0EDFAFDF739FA4FF07B
:10455000FF326169606C02F089F942F2107002F07A
:1045600071F8A3E70C000020001300200A4C6F69CB
:1045700020746169205344207461736B202D204F97
:1045800070656E2C2025640A0000000000230020C6
:104590000A4C6F6920746169205344207461736B05
:1045A000202D204C7365656B2C2025640A000000CB
:1045B000256429204E6869657420646F3A2025328D
:1045C0002E3066BA433B20546F6320646F3A202537
:1045D000332E306625250A000A4C6F692074616904
:1045E000205344207461736B202D205772697465C9
:1045F0002C2025640A0000000A4C6F692074616950
:10460000205344207461736B202D20436C6F7365BD
:104610002C2025640A00000010B5502080F311887A
:10462000BFF34F8FBFF36F8F03F070FD18B10449D4
:104630004FF080500860002080F3118810BD00000A
:1046400004ED00E010B590B028216846FBF7EAFFC2
:1046500014210AA8FBF7E6FF092000904FF48030F0
:104660004100CDE901010121049102240691CDE927
:1046700007404FF4501009906846FEF719F868B9E2
:104680000F20CDE90A0400206102CDE90C010E9053
:1046900002210AA8FDF700FF002801D0FDF790F9DC
:1046A00010B010BD704700000148FEF7EDBC0000DF
:1046B0008C2900200148FEF7E7BC000040020020E2
:1046C000F0B50268164B174C174D4FF080479842D3
:1046D00005D0B84203D0A04201D0A84203D122F0B5
:1046E00070064A683243984205D0B84203D0A042CF
:1046F00001D0A84203D122F44074CA6822434C6915
:1047000022F08002224302608A68C2620A688262E2
:10471000984201D10969016301214161F0BD0000A6
:10472000002C0140000400400008004010B501F0DA
:104730001F030121046A99408C430462016A9A4074
:104740001143016210BD10B5846842EA032224F4CB
:104750007F440A432243826010BD826822F07002C7
:104760000A4342F0070181607047000030B5026AD9
:1047700022F001020262026A4368846924F0730530
:104780000C682C4322F002058A682A430A4DA8428D
:104790000BD122F00805CA6823F440732A434D69FF
:1047A00022F004021D438B692B43436084614968F6
:1047B0004163026230BD0000002C014030B5026A46
:1047C00022F010020262026A436884690D6824F4D0
:1047D000E64444EA05248D6822F0200242EA0512EC
:1047E0000B4DA8420ED1CD6822F0800242EA05129C
:1047F0004D6923F4406343EA85038D6922F040024A
:1048000043EA85034360846149688163026230BD85
:10481000002C014030B5026A22F480720262036A01
:104820004268C46923F4007324F073050C682C43B8
:104830008D6843EA05230C4DA8420ED1CD6823F4C0
:10484000006343EA05234D6922F4405242EA05120F
:104850008D6923F4806342EA05124260C4614968AD
:10486000C163036230BD0000002C014030B5026A14
:1048700022F480520262046A4268C3690D6823F41C
:10488000E64343EA05238D6824F4005444EA0534E2
:10489000064DA84204D14D6922F4804242EA8512B5
:1048A0004260C36149680164046230BD002C01406C
:1048B00010B5036A046A24F001040462846924F0D8
:1048C000F00444EA021423F00A020A4384610262FB
:1048D00010BD10B5036A23F0100303628369046AF4
:1048E00023F4704343EA023224F0A00343EA0111A7
:1048F0008261016210BD000010B5174C206D03F0FD
:104900006BFE03F0B5FD02460B4614A11848FBF7F9
:10491000CBFC174802F072FC00F004F9206903F0A8
:104920005BFE03F0A5FD02460B4612A11048FBF703
:10493000BBFC0F4802F062FC00F0F4F80C4812A136
:104940003838C2683830FBF7AFFC094802F056FC33
:10495000BDE8104000F0E6B80C0000200A4E68697F
:10496000657420646F3A2025322E3066BA430A00FF
:1049700038230020546F6320646F3A2025332E3093
:104980006625250A0000000053697A65206F6620BD
:1049900066696C653A20256C640A000070B50446AF
:1049A00000680169E26821F4405111430161216905
:1049B000A0680843616908432168CA6841F20C6332
:1049C0009A430243CA6020684169A26921F4407198
:1049D000114341611E492068884202D1FDF722FE41
:1049E00001E0FDF70FFE00EBC00101EB0012606873
:1049F00064218000B2FBF0F3B3FBF1F36FF0180613
:104A00007343B2FBF0F5B2FBF0F605EB83053223FE
:104A100003EB0515B5FBF1F5B6FBF1F605F0F00576
:104A200005EB0615B2FBF0F6B2FBF0F0B0FBF1F0CF
:104A30006FF01802504306EB800003EB0010B0FB50
:104A4000F1F0216800F00F002844886070BD00007C
:104A5000003801402DE9F041984617460E460446BD
:104A6000069D1DE0681C1BD02DB1FDF78FFAA0EB51
:104A70000800A84214D92068C16821F4D071C1602F
:104A80002068416921F001014161202084F83D0046
:104A900084F83E00002084F83C000320BDE8F0814B
:104AA0002068006836EA000004D00020B842D9D05F
:104AB0000020F3E70120F9E7FFF77EB9FFF71ABA04
:104AC000FFF7B8BAFFF702BBFFF708BBFEE74900E4
:104AD00050EAC12018BF04204A0D18BF40F0010061
:104AE00040F2FF72B2EB515F08BF40F002000128B4
:104AF00008BF052070470907090E002804DB00F1F4
:104B0000E02080F80014704700F00F0000F1E02072
:104B100080F8141D704730380A2801D201207047F0
:104B2000002070470020044902464FF480630A5475
:104B3000401C9842FBDB70473823002001460020D0
:104B400000E0401C11F8012B002AFAD17047000048
:104B500010B5044600F5805000220271521E026317
:104B6000204601F053FD08B1032010BDB4F8FE014A
:104B7000A0F52A41553901D0022010BD94F8360025
:104B8000B4F8371040EA01210848B0EB012F08D0F3
:104B900094F85210B4F8532041EA0221B0EB012FEF
:104BA00001D1002010BD012010BD0000004641547D
:104BB00000E0401C02780AB18A42FAD1D0B27047B4
:104BC000F0B50022174B144600F5805002EB420668
:104BD00053F826506DB10768BD420BD103EB860533
:104BE00087686E68BE4205D12D89C688B54204D05B
:104BF00000E00124521C022AE8D3022A01D079B92C
:104C000004E05CB9022909D01220F0BD02EB420099
:104C100003EB80004089B0F5807F01D00020F0BD1B
:104C20001020F0BDF829002030B50021064A0C46BE
:104C300001EB410352F82350854201D142F8234051
:104C4000491C0229F4D330BDF829002000F580501A
:104C5000426A006800F58050438980784343B1FB85
:104C6000F3F0121D02CA19B1884203D3401AF8E7C3
:104C70000020704711680844704700F58050891E75
:104C80008269921E8A4201D800207047C26A8078E9
:104C900001FB002070472DE9F04180460F0000F530
:104CA000805407D0404601F01BFA022809D20120A7
:104CB000BDE8F081266916B1A069B04207D8012687
:104CC00005E0411CF4D0A1698142F1D83E46354649
:104CD000A0696D1CA84202D80225022E0AD32946DB
:104CE000404601F0FDF938B1411CE1D00128DFD088
:104CF000B542EDD10020DBE76FF070422946404617
:104D000002F02FF930B957B12A463946404602F031
:104D100028F920B101280DD001252846C8E72561D2
:104D20006069411CF9D0401E6061607940F001006B
:104D30006071F2E74FF0FF35EFE700002DE9F84F23
:104D400088460D6800E06D1C29782F29FBD05C296E
:104D5000F9D000F5805A0024DAF820702646A85DC4
:104D6000761C202817D32F2815D05C2813D0FF2CB1
:104D700031D2012100F0B4FF5FEA00092BD0B9F174
:104D8000800F04D2014668A0FFF712FF18BB27F876
:104D90001490641CE3E7AA19C8F80020202801D267
:104DA000042516E0002514E007EB440030F8020C5F
:104DB00020280DD02E280BD06CB1002027F814002D
:104DC0000B222021DAF8180001F019FC002606E079
:104DD000641E002CE8D10620BDE8F88F761C37F859
:104DE00016002028FAD02E28F8D01EB145F0030571
:104DF00000E0641E2CB107EB440030F8020C2E28B2
:104E0000F7D1002081464FF0080B009037F81600CC
:104E100006F101065FEA000824D0B8F1200F04D0A3
:104E2000B8F12E0F04D1A64202D045F00305EDE7FC
:104E30000098584501D2A6421AD1BBF10B0F0FD0F2
:104E4000A64201D045F003050CD84FF008000090B1
:104E50004FEA896026464FF00B0B4FEA1069D5E701
:104E600045F00305DAF818000178E52938D039E073
:104E70004046B8F1800F10D3002100F031FF5FEA07
:104E8000000805D02B4901EB080010F8800C804683
:104E900045F00205B8F1000F04D0014626A0FFF747
:104EA00087FE20B14FF05F0845F003050FE0A8F141
:104EB0004100192802D849F0020908E0A8F1610070
:104EC000192804D8413049F001091FFA80F8DAF8AE
:104ED0001820009902F801800098401C009095E786
:104EE00005210170BBF1080F03D14FEA89604FEA39
:104EF0001069C9F38100032803D06FEA090189070B
:104F000001D145F00205A90709D409F003010129DF
:104F100001D145F01005012801D145F00805DAF866
:104F20001800C572002057E7222A3A3C3E3F7C7F9A
:104F3000000000005C8900082B2C3B3D5B5D0000FD
:104F4000401E022815D20C4B00EB400203EB8201FD
:104F50004889B0F5807F05D008B1401E80B24881F5
:104F600010B104E00020FAE7002043F822000020FE
:104F70007047022070470000F82900204FF0804160
:104F80000A6842F001020A60044900220B685A6272
:104F900009684A6A8242FCD370470000B0010020D1
:104FA0002DE9F14F82B00021029800F007FA0028A5
:104FB0007AD1029DFF2005F580554FF6FF7A0090CB
:104FC0008146A5F824A02969286801F01FFB060086
:104FD0000DD16C69207848B1E17AE52801F03F01F4
:104FE0006DD00A0704D50F2969D107E0042671E0C6
:104FF0000F2903D0B9F1000F4AD04FE0296A89B3D5
:10500000420606D5627B009220F04000EA88814685
:10501000AA84484535D1627B0098824231D1019102
:105020002078A04620F04000401E00EB80010027C1
:10503000DFF8A8B001EBC006012400BF1BF8071081
:1050400001EB0800008874B100F086FE0446FF2ED4
:1050500017D2019830F81600761C00F07DFEA042B1
:105060000FD102E02FE050450BD17F1C0D2FE5D36F
:1050700098F80000400608D53CB1019830F81600B9
:1050800018B1FF2000F0FF091DE0A9F10100F9E7C8
:10509000204602F0CBF8009988421BD0A869C17A5B
:1050A000C9070CD10A2102E015E0491E06D314F805
:1050B000012B10F8013BD21AF7D000E052B14FF0AB
:1050C000FF09A5F824A00021029800F009F80600C5
:1050D0003FF479AF3046BDE8FE8F0000DC89000860
:1050E0002DE9F04100F580540F46E688761C300427
:1050F000000C38D0216991B3206800F580525389A3
:105100005B09B6FBF3F503FB1563002B67D1491C64
:105110002161E16821B3538992785B09B6FBF3F30F
:10512000521E13425BD100F0DBFF054601281FD958
:10513000681C39D0206841F218010958A94248D8A2
:105140006FB1E168FFF7A7FD05000FD0012D0FD06B
:10515000681C29D0206802F0CAF828BB0AE002E0E7
:105160001089B0423BD80420BDE8F0810720FBE75E
:105170000220F9E741F20A0120680A5A002101F0F1
:105180003EFA29462068FFF778FD2168002701F5DF
:1051900080514FF0010808630FE000BF80F80480E1
:1051A000206802F0A4F808B10120DDE7206800F5CE
:1051B0008050016B491C7F1C0163206800F5805002
:1051C0008178B942EAD8216801F58051096BC91B81
:1051D0000163E56029462068FFF74FFD2061E68006
:1051E00041F20A012068095A4909B6FBF1F201FBB4
:1051F000126100EB411060610020B5E72DE9F14F2D
:1052000084B00C22049C684604F58054A769266A81
:10521000394601F0EBF99DF80B00C00718D00020CB
:10522000F872012520622B4632466946384600F066
:1052300017FF0498FFF7B4FE10B96D1C642DF2D36C
:10524000642D0BD004280AD19DF80B00F872266259
:105250009DF80B0080070FD5002004E0072005B063
:10526000BDE8F08F401C36F810100029FAD10D214E
:105270001930B0FBF1F600E00126049D002128461C
:1052800000F09CF8A8B94FF0000805F5805739697F
:10529000386801F0BBF960B978690078E5280BD06F
:1052A00050B14FF0000801212846FFF719FF0028F0
:1052B000EDD0042812D012E008F101083046B045C4
:1052C000F1D1461E5FEA060A59D0E1880498A1EBA5
:1052D0000A0100F073F8050003D06BE007200546D3
:1052E00068E0A06901F0A2FF03902169206801F045
:1052F0008DF905005ED16169D4F820900398487358
:105300000F20C8720020087388760AF0FF0BC87659
:10531000ABF1010000EB800202EBC00500234FF669
:10532000FF7E254E4A1C01E0604503D039F8150088
:10533000F4466D1CF75CC85516F80380070A08F898
:10534000027000B960465B1C0D2BEDD3704502D096
:1053500039F8150008B94BF0400B81F800B021680E
:10536000012001F58051087100210498FFF7B8FE73
:1053700005001FD1AAF101005FEA000AB5D1216939
:10538000206801F043F9050014D120220021606952
:1053900001F035F9D4E905010B2201F027F9A069E4
:1053A0006169C07A00F0180008732168012001F5D6
:1053B00080510871284652E7DC89000870B500F575
:1053C00080540D46E180A368012B42D0206800F58F
:1053D0008050816999423CD923B90178032906D1CB
:1053E000836A23B1418980784E09464312E00189DE
:1053F000A9422ED9806A13E000F072FE0346401CD9
:1054000025D0022B25D3206800F580508069984272
:105410001FD9AD1B2068B5421946EDD2FFF72DFC10
:10542000E360B0B121680A4601F580514B895B0900
:10543000B5FBF3F31844206148894009B5FBF0F14E
:1054400000FB115002EB40106061002070BD012094
:1054500070BD022070BD0000084910B50B5C002231
:1054600053B901220A540A1801EB8000127A4068ED
:105470000168104688470246104610BD102A0020D9
:1054800030B4054C231804EB80001B7A4068046993
:105490001846A44630BC6047102A002030B4054DA1
:1054A0002C1805EB8000247A406885682046AC46BD
:1054B00030BC6047102A0020044A111802EB80001B
:1054C000097A40684268084610470000102A002008
:1054D00030B4054D2C1805EB8000247A4068C5686F
:1054E0002046AC4630BC6047102A002070B5054607
:1054F00000F09CFA040011D1284602F057F904008C
:105500000CD105F580552E68A86AFFF719FD040037
:1055100000D128600021304601F012FF204670BD06
:105520002DE9FC5F0D46834602F040F95FEA000971
:105530000BF5805471D1E17929B1206801F000FFA9
:10554000E079BDE8FC9F606A01274FF0020A00285D
:1055500079D0691C32D0E068A84200D20546A56027
:10556000002D5AD05846691EFFF770FB6061226813
:1055700001461046FFF781FB00287DD021686D1E93
:1055800001F580514A898B78B5FBF2F55B1E1D4011
:105590000544A068B0FBF2F302FB13000028E0D042
:1055A000A269AA42DDD0A07940063ED54878012301
:1055B0005946FFF78DFF002879D132E002C80091EB
:1055C00021698346022501B30026AD1C019188465E
:1055D000761C206800F084FD014601284CD9481C47
:1055E00065D008F101008142F1D00098854206D8CB
:1055F000CBF800600BF10400019A04C083462068D8
:1056000000F5805080698842DED8606A05600098A5
:10561000854203D80021CBF80010BDE04FF01109FE
:10562000BAE0A07920F04000A0712068012300F5C5
:1056300080502A4640785946FFF730FF002836D17F
:10564000A561A9E0FFE7E068A84203D2A179890734
:1056500000D405464FF00008A068C4F808802DB3B8
:105660002268134602F58052967851894E4378B1EC
:10567000691EB1FBF6F100E066E0401EB0FBF6F2F9
:10568000914205D3711E8843A0602D1A61690CE018
:10569000216949B900211846FFF7FDFA01460128A2
:1056A00052D0481C66D021616161E9B935E061E002
:1056B000A0798007206805D5FFF7EDFA010004D135
:1056C000354613E000F00CFD0146481C52D001297C
:1056D0003AD9206800F580508069884234D96161E8
:1056E000A068AD1B3044A060B542E1D8A06841F28B
:1056F0000A022844A0602068125AB5FBF2F302FBAC
:10570000135252B1FFF7B9FAF0B1216801F5805197
:105710004989B5FBF1F101EB00082068A16800F5AB
:1057200080504289B1FBF2F302FB131159B3A26915
:10573000424528D0A179490612D54078012359461F
:10574000FFF7C6FEB0B907E084F807A00221206881
:1057500001F0F6FD0220F4E6A07920F04000A071EF
:105760002068012300F58050424640785946FFF7F3
:1057700095FE30B1E7710121206801F0E1FD0120C3
:10578000DFE6C4F81880D4E90201884204D9E06059
:10579000A07940F02000A0714946206801F0D0FDBA
:1057A0004846CEE62DE9F74181B090460298009038
:1057B000684600F00AFD050003D50B2004B0BDE8E3
:1057C000F081194E002756F825404CB12046FFF7CE
:1057D0002BFA04F58054E06800F0ACFAB0B1277001
:1057E000019850B14FF48051EAB20F5441F20C01CC
:1057F0000144104600F090FA40B1019846F82500A7
:1058000010B1B8F1010F03D00020D7E70220D5E78F
:10581000002202A901A800F0B1FA0446014601984D
:1058200001F08EFD2046C9E7940000202DE9F74FD6
:10583000ADF5925D98B100F580564FF0000802F08A
:105840001F0741F2442127F0010269440DF5805001
:10585000C6F8008000F092FA040007D0DAE00920D0
:105860000DF5137D0DF5805DBDE8F08F41F2282127
:105870000DF580506944816100F128010162EB4619
:10588000D0F84412584600F0B5FB04000DF58050E6
:1058900045690BD11DB1780803D0012102E006242F
:1058A00004E000215846FFF78BF9044617F01C0F5F
:1058B00074D04FF0010AE4B1042C13D100205A49EE
:1058C00002E0401C022805D200EB400251F82220E1
:1058D000002AF6D1022803D05846FFF78FFC00E0DB
:1058E000122004460DF5805047F00807456954B171
:1058F00090E0E87A10F0110F01D007248AE07807D1
:1059000001D5082486E0380756D500F05CFCA87362
:10591000010AE973010C2974000E687485F80B8084
:1059200085F81C8085F81D8085F81E800DF5805057
:1059300085F81F800068294600F0F2FC81460021AE
:10594000284601F06BFC0DF58050B9F1000F00689E
:1059500000F5805080F804A02CD00DF58050494609
:10596000006800F58050D0F830A00DF58050006838
:1059700001F010FC04004DD10DF58050A9F101019A
:10598000006800F5805001610DF5805051460068B7
:1059900000F03CFE04000BD03CE0FFE7D4BBE87A0B
:1059A000C10601D5042435E0B90701D5C007A4D14B
:1059B000380701D547F020070DF58050006800F545
:1059C0008050006BC6E90705780801D0012100E08E
:1059D0000021584600F01EFCB06218B3B7710DF5F7
:1059E000805086F8078047460068294600F098FCFA
:1059F0003061287FD5F81D1040EA0120C6E9027009
:105A0000B7610DF5805077620068306000F5805016
:105A1000C088B0800DF580502146006801F090FCF0
:105A200020461DE70224F5E7F829002070B5064658
:105A300001F0BCFE050006F580544BD1A07981062B
:105A400048D5400613D52068012300F58050314623
:105A50004078A269FFF73CFD28B10121206801F0E0
:105A60006FFC012070BDA07920F04000A071E169B9
:105A7000206800F0CBFD05002CD1256AE87A40F0C3
:105A80002000E872207B2877A089000A6877E06808
:105A9000000CA877E068000EE8772846216901F03D
:105AA000BDFB00F090FBA875010AE975010C297691
:105AB000000E68760020A874E874A079012120F017
:105AC0002000A071206800F580500171206801F06D
:105AD000BAFB05462946206801F032FC284670BD15
